S00F00007765656B362D322E73726563D4
S113000045C0000061C000006EC00000B1C0000027
S11300105AC0000058C0000056C0000054C0000080
S113002052C0000050C0000048C100004CC0000095
S11300304AC0000048C0000046C0000044C00000A0
S113004042C0000040C000003EC000003CC00000B0
S11300503AC0000038C0000036C0000034C00000C0
S113006032C0000030C000002EC000002CC00000D0
S11300702AC0000028C0000026C0000024C00000E0
S113008022C0000020C000001EC0000011241FBEBA
S1130090CFEFD0E1DEBFCDBF11E0A0E0B1E0E2E4FC
S11300A0F3E000E00BBF02C007900D92A032B1074D
S11300B0D9F721E0A0E2B1E001C01D92A332B2075A
S11300C0E1F78BD03CC19CCF1F920F920FB60F92D9
S11300D011248F9381E0809320018F910F900FBEA4
S11300E00F901F9018951F920F920FB60F92112424
S11300F0109220010F900FBE0F901F90189588BB8F
S113010084E08BBB8FE99FE00197F1F700C000000A
S11301108BB38B7F8BBB089588BB85E08BBB8FE94A
S11301209FE00197F1F700C000008BB38B7F8BBB7E
S113013008950F931F93CF93DF938C01613031F4B3
S113014080E890E0DCDFC0E0D0E007C080EC90E025
S1130150D6DFF9CF21968081DFDFF801EC0FFD1F98
S113016080818111F7CFDF91CF911F910F91089575
S11301701F920F920FB60F9211240BB60F922F936A
S11301803F934F935F936F937F938F939F93AF931B
S1130190BF93EF93FF93E0E0F1E080E3878B868BDE
S11301A0848B838B818B808B62E080E191E0C1DF63
S11301B010922001FF91EF91BF91AF919F918F9188
S11301C07F916F915F914F913F912F910F900BBE53
S11301D00F900FBE0F901F9018958FEF8ABB87BBAF
S11301E011BA12BA8FE380936A0087E089BF85E071
S11301F085BD80E487BF14BC80E88FBF80E390E0B6
S11302007EDF81E090E07BDF80E890E078DF8CE0C7
S113021090E075DF86E090E072DF61E080E091E0DD
S113022088DF62E080E191E084DFFFCF80911701F5
S11302308933E9F5E0E0F1E080E3878B8689853353
S113024081F580E3868B8489893329F580E3848B67
S113025083898533D1F480E3838B8189893379F46D
S113026080E3818B8089893321F480E380931001BA
S11302700895E0E0F1E080898F5F808B0895E0E0ED
S1130280F1E081898F5F818B0895E0E0F1E083895B
S11302908F5F838B0895E0E0F1E084898F5F848B26
S11302A00895E0E0F1E086898F5F868B0895E0E0B1
S11302B0F1E087898F5F878B08951F920F920FB6A5
S11302C00F9211240BB60F922F933F934F935F938A
S11302D06F937F938F939F93AF93BF93EF93FF930A
S11302E0809120018823C1F0809121019091220105
S11302F00196909322018093210180912101909194
S11303002201CC9749F492DF62E080E191E011DFB1
S11303101092220110922101FF91EF91BF91AF91B0
S11303209F918F917F916F915F914F913F912F9109
S11303300F900BBE0F900FBE0F901F901895F8945E
S1050340FFCFE9
S113034253746F70205761746368000000000000EA
S113035230303A30303A3030000000000000000003
S9030000FC
