:1000000045C0000053C0000051C000004FC00000B8
:100010004DC000004BC0000049C0000047C00000B8
:1000200045C0000043C0000041C000003FC00000C8
:100030003DC000003BC0000039C0000037C00000D8
:1000400035C0000033C0000032C000002FC00000E7
:100050002DC000002BC0000029C0000027C00000F8
:1000600025C0000023C0000021C000001FC0000008
:100070001DC000001BC000002DC0000017C0000004
:1000800015C0000013C0000011C0000011241FBEE5
:10009000CFEFD0E1DEBFCDBF21E0A0E0B1E001C0F5
:1000A0001D92A130B207E1F728D04AC0A9CF1F9214
:1000B0000F920FB60F9211248F938CB18093000191
:1000C0008091000180939C008F910F900FBE0F9044
:1000D0001F9018951F920F920FB60F9211248F93B5
:1000E00080919C0080930001809100018CB98F91D8
:1000F0000F900FBE0F901F9018958BB18BB98AB1DE
:1001000088698AB9E5E9F0E0808186688083EBE957
:10011000F0E080818083EAE9F0E080818869808373
:10012000EDE9F0E08081866880831092900087E698
:1001300089B9109298008093990080E88FBFFFCF13
:04014000F894FFCF61
:00000001FF
