S00F00007765656B342D322E73726563D6
S113000045C0000058C0000056C0000054C00000A5
S113001052C0000050C000004EC000004CC00000A0
S11300204AC0000048C0000046C0000044C00000B0
S113003042C0000040C000003EC000003CC00000C0
S11300403AC0000038C0000036C0000034C00000D0
S113005032C0000030C000002EC000002CC00000E0
S11300602AC0000028C0000026C0000024C00000F0
S113007022C0000020C000001EC000001CC0000000
S11300801AC0000018C0000016C0000011241FBED2
S1130090CFEFD0E1DEBFCDBF11E0A0E0B1E0EAEDEB
S11300A0F1E000E00BBF02C007900D92AC31B10744
S11300B0D9F751D090C0A4CF1BBAEFE8F1E0319743
S11300C0F1F700C0000094E09BBBEFE8F1E031974A
S11300D0F1F700C0000088BB8FE891E00197F1F7C9
S11300E000C000001BBAEFE8F1E03197F1F700C05F
S11300F00000089595E09BBBEFE8F1E03197F1F73C
S113010000C0000088BB8FE891E00197F1F700C0C0
S1130110000081E08BBBEFE8F1E03197F1F700C01C
S1130120000008950F931F93CF93DF938C0180E811
S113013090E0C2DFC0E0D0E003C021968081DADF26
S1130140F801EC0FFD1F80818111F7CFDF91CF9172
S11301501F910F9108958FEF8ABB87BB8FE19EE4B7
S11301600197F1F700C0000080E390E0A5DF81E093
S113017090E0A2DF80E890E09FDF8CE090E09CDFDD
S113018086E090E099DF80E091E0CCDF82E090E0CF
S113019093DF85E090E090DFC0E0C63070F09FEF21
S11301A023ED80E3915020408040E1F700C000003F
S11301B082E090E081DFC0E0F0CFCF5F9FEF23EDDE
S11301C080E3915020408040E1F700C0000080E0CF
S10D01D092E172DFE2CFF894FFCF52
S11301DA4142434445464748494A4B4C4D4E4F5089
S10F01EA5152535455565758595A0000AE
S9030000FC
