:1000000045C0000053C0000051C000004FC00000B8
:100010004DC000004BC000004AC0000059C00000A5
:100020006CC0000043C0000041C000003FC00000A1
:100030003DC000003BC0000039C0000037C00000D8
:1000400035C0000033C0000031C000002FC00000E8
:100050002DC000002BC0000029C0000027C00000F8
:1000600025C0000023C0000021C000001FC0000008
:100070001DC000001BC0000019C0000017C0000018
:1000800015C0000013C0000011C0000011241FBEE5
:10009000CFEFD0E1DEBFCDBF21E0A0E0B1E001C0F5
:1000A0001D92A230B207E1F74CD085C0A9CF1F92B4
:1000B0000F920FB60F9211248F93809101018F5FE1
:1000C000809301018F910F900FBE0F901F90189594
:1000D0001F920F920FB60F9211248F9380910101FE
:1000E000823028F0809101018150809301018F912D
:1000F0000F900FBE0F901F9018951F920F920FB682
:100100000F9211248F9380910001882319F010928F
:10011000000103C081E0809300018F910F900FBE1A
:100120000F901F90189580E007C0EFE3FCE931972E
:10013000F1F700C000008F5F909101018917A8F3CB
:10014000089591E0909301018FEF8ABB1BBA12B81A
:1001500080EE83B928EA2ABF89BF8FB780688FBF36
:1001600090930001809100018130E1F710C08091EF
:100170000001811103C08FEF8BBB1AC0D4DFCBBB52
:100180008C2F90E0880F991FC82FC16001C0CEEF5F
:10019000CF3769F70DC080910001811103C08FEF47
:1001A0008BBBE0CFC0DFCBBB8C2F8695C82FC06840
:0A01B000CE3F89F7D7CFF894FFCFB8
:00000001FF
