:1000000045C0000053C0000051C000004FC00000B8
:100010004DC000004BC0000049C0000047C00000B8
:1000200045C0000043C0000041C000003FC00000C8
:100030003DC000003BC0000039C0000037C00000D8
:1000400035C0000033C0000045C000002FC00000D4
:100050002DC000002BC0000029C0000027C00000F8
:1000600025C0000023C0000021C000001FC0000008
:100070001DC000001BC0000019C0000017C0000018
:1000800015C0000013C0000011C0000011241FBEE5
:10009000CFEFD0E1DEBFCDBF21E0A0E0B1E001C0F5
:1000A0001D92A130B207E1F741D049C0A9CF1BB8DA
:1000B00088E98AB986E8809395001092900087E6D7
:1000C00089B908958DE685BD80EC87BF89E183BD40
:1000D00014BC08951F920F920FB60F9211248F93A4
:1000E0008CB1809300018091000180538BBB809183
:1000F0000001833379F028F4813341F0823341F0F9
:100100000FC0843349F0853349F00AC08CE083BDC9
:100110008FE083BD82E183BD85E183BD89E183BD3D
:100120008F910F900FBE0F901F9018958FEF8ABB85
:1001300087BBC8DFBCDF8FB780688FBFFFCFF89465
:02014000FFCFEF
:00000001FF
