S00F00007765656B362D312E73726563D5
S113000045C0000053C0000051C000004FC00000B4
S11300104DC000004BC0000049C0000047C00000B4
S113002045C0000043C0000042C000003FC00000C3
S11300303DC000003BC0000039C0000037C00000D4
S113004035C0000033C0000031C000002FC00000E4
S11300502DC000002BC0000029C0000027C00000F4
S113006025C0000023C0000021C000001FC0000004
S11300701DC000001BC0000019C0000017C0000014
S113008015C0000013C0000011C0000011241FBEE1
S1130090CFEFD0E1DEBFCDBF21E0A0E0B1E001C0F1
S11300A01D92A330B207E1F72AD039C0A9CF1F921D
S11300B00F920FB60F9211248F939F93809100019A
S11300C09091010101969093010180930001CC97D6
S11300D079F480910201803821F481E08093020157
S11300E003C0880F80930201109201011092000155
S11300F09F918F910F900FBE0F901F9018958FEFC7
S11301008ABB85E085BD80E487BF14BC80E88FBFCF
S113011081E080930201809102018BBBFCCFF894B3
S1050120FFCF0B
S9030000FC
