S01000007765656B31312D322E73726563A7
S113000045C0000059C000006CC000007BC0000067
S113001052C0000050C000004EC000004CC00000A0
S11300204AC0000048C0000046C0000044C00000B0
S113003042C0000040C000003EC000003CC00000C0
S11300403AC0000038C0000036C0000034C00000D0
S113005032C0000030C000002EC000002CC00000E0
S11300602AC0000028C0000026C0000024C00000F0
S113007022C0000020C000001EC000001CC0000000
S11300801AC0000018C0000016C0000011241FBED2
S1130090CFEFD0E1DEBFCDBF11E0A0E0B1E0EEE8EC
S11300A0F1E000E00BBF02C007900D92A230B1074F
S11300B0D9F752D06AC0A4CF1F920F920FB60F92F5
S11300C011248F9380910001813029F080910001E7
S11300D08150809300018F910F900FBE0F901F905D
S11300E018951F920F920FB60F9211248F9380913F
S11300F000018F5F809300018F910F900FBE0F90CE
S11301001F9018951F920F920FB60F9211248F9380
S113011080910101813019F41092010103C081E042
S1130120809301018F910F900FBE0F901F9018952F
S11301308AE280936A0087E089BF089580E007C05F
S1130140EFE9FFE03197F1F700C000008F5F909175
S113015000018917A8F3089511BA8FEF82B982BB01
S113016083E383B9E5DF80910101813039F480EBC9
S113017083B9E4DF85EB83B9E1DFF5CF8AEB83B99B
S1110180DDDF8FEB83B9DADFEECFF894FFCF2B
S105018E020168
S9030000FC
