:1000000045C00000FFC100005FC000008BC00000C1
:10001000B7C00000D7C00000F7C0000017C1000043
:1000200037C1000050C000002DC200004CC00000CD
:100030004AC0000048C0000046C0000044C00000A4
:1000400042C0000040C000007EC100003CC0000073
:100050003AC0000038C0000036C0000034C00000C4
:1000600032C0000030C000002EC000002CC00000D4
:100070002AC0000028C0000026C0000024C00000E4
:1000800022C0000020C000001EC0000011241FBEBE
:10009000CFEFD0E1DEBFCDBF11E0A0E0B1E0ECEEEC
:1000A000F5E000E00BBF02C007900D92A836B10743
:1000B000D9F721E0A8E6B1E001C01D92AE36B20743
:1000C000E1F75BD291C29CCF1F920F920FB60F92B5
:1000D00011240BB60F928F93EF93FF9380916B01D6
:1000E00080FF0BC080916801826080936801E2E626
:1000F000F0E08081826080830BC0809100018930B4
:1001000038F4809100018F5F80930001809362003A
:10011000FF91EF918F910F900BBE0F900FBE0F903C
:100120001F9018951F920F920FB60F9211240BB6C5
:100130000F928F93EF93FF9380916B0180FF0BC021
:1001400080916801846080936801E2E6F0E080813C
:10015000846080830BC080910001823038F08091F0
:10016000000181508093000180936200FF91EF9124
:100170008F910F900BBE0F900FBE0F901F90189590
:100180001F920F920FB60F9211240BB60F928F93FE
:10019000EF93FF9380916B0180FF0AC0809168010B
:1001A000886080936801E2E6F0E080818860808367
:1001B000FF91EF918F910F900BBE0F900FBE0F909C
:1001C0001F9018951F920F920FB60F9211240BB625
:1001D0000F928F93EF93FF9380916B0180FF0AC082
:1001E00080916801806180936801E2E6F0E080819F
:1001F00080618083FF91EF918F910F900BBE0F90E4
:100200000FBE0F901F9018951F920F920FB60F926E
:1002100011240BB60F928F93EF93FF9380916B0194
:1002200080FF0AC080916801806280936801E2E6E5
:10023000F0E0808180628083FF91EF918F910F9039
:100240000BBE0F900FBE0F901F9018951F920F922C
:100250000FB60F9211240BB60F928F93EF93FF936B
:1002600080916B0180FF0AC0809168018064809357
:100270006801E2E6F0E0808180648083FF91EF9185
:100280008F910F900BBE0F900FBE0F901F9018957F
:100290001F920F920FB60F9211240BB60F928F93ED
:1002A000EF93FF9380916B0180FF0AC080916801FA
:1002B000806880936801E2E6F0E080818068808356
:1002C000FF91EF918F910F900BBE0F900FBE0F908B
:1002D0001F90189588BB84E08BBB8FE99FE0019746
:1002E000F1F700C000008BB38B7F8BBB089588BBF8
:1002F00085E08BBB8FE99FE00197F1F700C000001C
:100300008BB38B7F8BBB08950F931F93CF93DF939A
:100310008C01613031F480E890E0DCDFC0E0D0E0B7
:1003200007C080EC90E0D6DFF9CF21968081DFDF37
:10033000F801EC0FFD1F80818111F7CFDF91CF9184
:100340001F910F9108951F920F920FB60F921124D3
:100350000BB60F922F933F934F935F936F937F93BF
:100360008F939F93AF93BF93EF93FF9380916B0114
:1003700080FF35C08CB180936D01813721F1E09110
:100380006901F0E080916D01EF5FFE4F818B8091FC
:1003900069018F5F8093690180916A01880F982FAE
:1003A000990F990F890F80936A0180916D0190E0F8
:1003B000C09790916A01890F80936A0162E082E19F
:1003C00091E0A2DF0CC080916B01826080936B0191
:1003D00062E085E491E098DF1092690114BCFF911E
:1003E000EF91BF91AF919F918F917F916F915F91AD
:1003F0004F913F912F910F900BBE0F900FBE0F901A
:100400001F9018951F920F920FB60F9211240BB6E2
:100410000F922F933F934F935F936F937F938F939D
:100420009F93AF93BF93EF93FF9380916B0180FFF6
:100430000BC080916801816080936801E2E6F0E082
:100440008081816080830BC080916B01816080938B
:100450006B011092620062E086E591E055DFFF914A
:10046000EF91BF91AF919F918F917F916F915F912C
:100470004F913F912F910F900BBE0F900FBE0F9099
:100480001F9018951F920F920FB60F9211240BB662
:100490000F922F933F934F935F936F937F938F931D
:1004A0009F93AF93BF93EF93FF9380916B0181FF75
:1004B00051C09091680180916A01981791F18091E3
:1004C0006C018F5F80936C0180916C018C3309F01B
:1004D00041C0E1E0F1E086898150868B803328F0CD
:1004E00062E082E191E010DF19C062E084E391E014
:1004F0000BDF2FEF89E698E1215080409040E1F733
:1005000000C0000010926B0110926A011092680105
:100510001092620062E085E491E0F6DE10926C01D8
:1005200019C062E083E291E0EFDE10926B0110925D
:100530006A0110926801109262002FEF80E792E04A
:10054000215080409040E1F700C0000062E085E467
:1005500091E0DADEFF91EF91BF91AF919F918F9182
:100560007F916F915F914F913F912F910F900BBEB3
:100570000F900FBE0F901F9018958FEF8ABB87BB0F
:1005800011BA12B8809361009FE092BB90EF93B9CB
:10059000109262001BB898E99AB996E8909395007A
:1005A0001092900097E699B99AEA90936A009ABFE0
:1005B00089BF85E085BD80E487BF14BC80E88FBF1C
:1005C00088E390E087DE81E090E084DE80E890E0E0
:1005D00081DE8CE090E07EDE86E090E07BDE61E014
:0C05E00081E091E091DEFFCFF894FFCFA6
:1005EC0005386269742042696E6172792047616DC9
:1005FC0065002020203A203520736563206C6566E9
:10060C00740000436F727265637421000000000077
:10061C000000000047616D65204F76657220202038
:10062C00202000000020202020202020202020201E
:10063C0020202020200077616974696E672E2E00BF
:08064C000000000000000000A6
:00000001FF
