:1000000045C0000060C000005EC000005CC0000091
:100010005AC0000058C0000056C0000054C0000084
:1000200052C0000051C000004EC000004CC0000093
:100030004AC0000048C0000046C0000044C00000A4
:1000400042C0000040C000003EC000003CC00000B4
:100050003AC0000038C0000036C0000034C00000C4
:1000600032C0000030C000002EC000002CC00000D4
:100070002AC0000028C0000026C0000024C00000E4
:1000800022C0000020C000001EC0000011241FBEBE
:10009000CFEFD0E1DEBFCDBF11E0A0E0B1E0EAE4F8
:1000A000F1E000E00BBF02C007900D92A230B10753
:1000B000D9F721E0A2E0B1E001C01D92A430B2075F
:1000C000E1F731D040C09CCF1F920F920FB60F9234
:1000D00011240BB60F928F939F93EF93FF93809110
:1000E0000201909103010196909303018093020114
:1000F00080910201909103018D37910549F4E2E668
:10010000F0E08081809580831092030110920201BB
:10011000FF91EF919F918F910F900BBE0F900FBEAB
:100120000F901F9018958FEF809361008DE085BD33
:1001300080E887BF9CE793BD14BC8FBF809100010E
:0A01400080936200FFCFF894FFCF18
:02014A000F00A4
:00000001FF
