S01000007765656B31332D322E73726563A5
S113000045C0000053C0000051C000004FC00000B4
S11300104DC000004BC0000049C0000047C00000B4
S113002045C0000044C0000041C000003FC00000C3
S11300303DC000003BC0000039C0000037C00000D4
S113004035C0000033C0000031C000002FC00000E4
S11300502DC000002BC0000029C0000027C00000F4
S113006025C0000023C0000021C000001FC0000004
S11300701DC000001BC0000019C0000017C0000014
S113008015C0000013C0000011C0000011241FBEE1
S1130090CFEFD0E1DEBFCDBF21E0A0E0B1E001C0F1
S11300A01D92A030B207E1F711D049C0A9CF1F9229
S11300B00F920FB60F9211248F938BB380588BBB82
S11300C08F910F900FBE0F901F90189580E88ABBF8
S11300D012B89FEF93B99CE095BD87BF9CE793BD91
S11300E014BC8FBF81B18F3EF1F038F48F3B09F11E
S11300F08F3DE1F08F37B1F71FC08B3F71F018F4DB
S1130100873F71F0EFCF8D3F29F08E3F59F786E797
S113011083BDE8CF8AE683BDE5CF8EE583BDE2CF1C
S113012089E583BDDFCF8FE483BDDCCF86E483BD67
S1130130D9CF8EE383BDD6CF8BE383BDD3CFF894E1
S1050140FFCFEB
S9030000FC
